{
  "_format": "hh-sol-artifact-1",
  "contractName": "ContractReader",
  "sourceName": "contracts/core/utils/ContractReader.sol",
  "abi": [
    {
      "inputs": [],
      "stateMutability": "nonpayable",
      "type": "constructor"
    },
    {
      "anonymous": false,
      "inputs": [
        {
          "indexed": false,
          "internalType": "uint8",
          "name": "version",
          "type": "uint8"
        }
      ],
      "name": "Initialized",
      "type": "event"
    },
    {
      "inputs": [],
      "name": "getALPTotalSupply",
      "outputs": [
        {
          "internalType": "uint256",
          "name": "_totalSupply",
          "type": "uint256"
        }
      ],
      "stateMutability": "view",
      "type": "function"
    },
    {
      "inputs": [],
      "name": "getAlpPrice",
      "outputs": [
        {
          "internalType": "uint256",
          "name": "_price",
          "type": "uint256"
        }
      ],
      "stateMutability": "view",
      "type": "function"
    },
    {
      "inputs": [],
      "name": "getExposuresPerALP",
      "outputs": [
        {
          "internalType": "int256[]",
          "name": "exposures",
          "type": "int256[]"
        }
      ],
      "stateMutability": "view",
      "type": "function"
    },
    {
      "inputs": [
        {
          "internalType": "uint32",
          "name": "marketId",
          "type": "uint32"
        },
        {
          "internalType": "uint256",
          "name": "marketOrderSeq",
          "type": "uint256"
        }
      ],
      "name": "getFuturesMarketOrder",
      "outputs": [
        {
          "internalType": "address",
          "name": "user",
          "type": "address"
        },
        {
          "internalType": "uint256",
          "name": "orderId",
          "type": "uint256"
        },
        {
          "internalType": "uint256",
          "name": "qty",
          "type": "uint256"
        },
        {
          "internalType": "uint256",
          "name": "limitPrice",
          "type": "uint256"
        },
        {
          "internalType": "uint256",
          "name": "slippageThreshold",
          "type": "uint256"
        },
        {
          "internalType": "uint32",
          "name": "_marketId",
          "type": "uint32"
        },
        {
          "internalType": "bool",
          "name": "isLong",
          "type": "bool"
        },
        {
          "internalType": "bool",
          "name": "isLimitOrder",
          "type": "bool"
        }
      ],
      "stateMutability": "view",
      "type": "function"
    },
    {
      "inputs": [
        {
          "internalType": "uint32",
          "name": "marketId",
          "type": "uint32"
        },
        {
          "internalType": "int256",
          "name": "qty",
          "type": "int256"
        }
      ],
      "name": "getMarkPriceAndInstantClosePrice",
      "outputs": [
        {
          "internalType": "uint256",
          "name": "marketPrice",
          "type": "uint256"
        },
        {
          "internalType": "uint256",
          "name": "instantClosePrice",
          "type": "uint256"
        }
      ],
      "stateMutability": "view",
      "type": "function"
    },
    {
      "inputs": [
        {
          "internalType": "uint32",
          "name": "marketId",
          "type": "uint32"
        },
        {
          "internalType": "int256",
          "name": "qty",
          "type": "int256"
        },
        {
          "internalType": "uint256",
          "name": "indexPrice",
          "type": "uint256"
        }
      ],
      "name": "getMarkPriceAndInstantClosePriceWithIndexPrice",
      "outputs": [
        {
          "internalType": "uint256",
          "name": "marketPrice",
          "type": "uint256"
        },
        {
          "internalType": "uint256",
          "name": "instantClosePrice",
          "type": "uint256"
        }
      ],
      "stateMutability": "view",
      "type": "function"
    },
    {
      "inputs": [
        {
          "internalType": "uint32",
          "name": "marketId",
          "type": "uint32"
        }
      ],
      "name": "getMarket",
      "outputs": [
        {
          "components": [
            {
              "internalType": "int256",
              "name": "accFundingFactor",
              "type": "int256"
            },
            {
              "internalType": "int256",
              "name": "fundingRate",
              "type": "int256"
            },
            {
              "internalType": "int256",
              "name": "skewness",
              "type": "int256"
            },
            {
              "internalType": "uint256",
              "name": "lastFundingRateUpdateTimestamp",
              "type": "uint256"
            },
            {
              "internalType": "uint256",
              "name": "depthFactor",
              "type": "uint256"
            },
            {
              "internalType": "uint256",
              "name": "skewnessSoftCap",
              "type": "uint256"
            },
            {
              "internalType": "uint256",
              "name": "skewnessHardCap",
              "type": "uint256"
            },
            {
              "internalType": "enum DataTypes.MarketStatus",
              "name": "status",
              "type": "uint8"
            },
            {
              "internalType": "uint256",
              "name": "fundingRateCoefficient",
              "type": "uint256"
            },
            {
              "internalType": "uint256",
              "name": "targetLeverage",
              "type": "uint256"
            },
            {
              "internalType": "uint32",
              "name": "imr",
              "type": "uint32"
            },
            {
              "internalType": "uint32",
              "name": "mmr",
              "type": "uint32"
            }
          ],
          "internalType": "struct ContractReader.Market",
          "name": "market",
          "type": "tuple"
        }
      ],
      "stateMutability": "view",
      "type": "function"
    },
    {
      "inputs": [],
      "name": "getMarkets",
      "outputs": [
        {
          "components": [
            {
              "internalType": "int256",
              "name": "accFundingFactor",
              "type": "int256"
            },
            {
              "internalType": "int256",
              "name": "fundingRate",
              "type": "int256"
            },
            {
              "internalType": "int256",
              "name": "skewness",
              "type": "int256"
            },
            {
              "internalType": "uint256",
              "name": "lastFundingRateUpdateTimestamp",
              "type": "uint256"
            },
            {
              "internalType": "uint256",
              "name": "depthFactor",
              "type": "uint256"
            },
            {
              "internalType": "uint256",
              "name": "skewnessSoftCap",
              "type": "uint256"
            },
            {
              "internalType": "uint256",
              "name": "skewnessHardCap",
              "type": "uint256"
            },
            {
              "internalType": "enum DataTypes.MarketStatus",
              "name": "status",
              "type": "uint8"
            },
            {
              "internalType": "uint256",
              "name": "fundingRateCoefficient",
              "type": "uint256"
            },
            {
              "internalType": "uint256",
              "name": "targetLeverage",
              "type": "uint256"
            },
            {
              "internalType": "uint32",
              "name": "imr",
              "type": "uint32"
            },
            {
              "internalType": "uint32",
              "name": "mmr",
              "type": "uint32"
            }
          ],
          "internalType": "struct ContractReader.Market[]",
          "name": "markets",
          "type": "tuple[]"
        }
      ],
      "stateMutability": "view",
      "type": "function"
    },
    {
      "inputs": [
        {
          "internalType": "uint32[]",
          "name": "marketIds",
          "type": "uint32[]"
        }
      ],
      "name": "getMarketsExistingPendingOrders",
      "outputs": [
        {
          "internalType": "bool[]",
          "name": "",
          "type": "bool[]"
        }
      ],
      "stateMutability": "view",
      "type": "function"
    },
    {
      "inputs": [
        {
          "internalType": "uint256",
          "name": "assetId",
          "type": "uint256"
        }
      ],
      "name": "getPriceFeed",
      "outputs": [
        {
          "internalType": "uint256",
          "name": "",
          "type": "uint256"
        }
      ],
      "stateMutability": "view",
      "type": "function"
    },
    {
      "inputs": [
        {
          "internalType": "uint256[]",
          "name": "assetIds",
          "type": "uint256[]"
        }
      ],
      "name": "getPriceFeeds",
      "outputs": [
        {
          "internalType": "uint256[]",
          "name": "",
          "type": "uint256[]"
        }
      ],
      "stateMutability": "view",
      "type": "function"
    },
    {
      "inputs": [
        {
          "internalType": "address",
          "name": "user",
          "type": "address"
        },
        {
          "internalType": "uint256",
          "name": "repayQty",
          "type": "uint256"
        },
        {
          "internalType": "address",
          "name": "repayTokenAddress",
          "type": "address"
        },
        {
          "internalType": "address",
          "name": "receiveTokenAddress",
          "type": "address"
        },
        {
          "internalType": "bool",
          "name": "isLp",
          "type": "bool"
        }
      ],
      "name": "getSwapRateAtLiquidation",
      "outputs": [
        {
          "internalType": "uint256",
          "name": "_repayQty",
          "type": "uint256"
        },
        {
          "internalType": "uint256",
          "name": "_receiveQty",
          "type": "uint256"
        },
        {
          "internalType": "uint256",
          "name": "_insuranceBonus",
          "type": "uint256"
        }
      ],
      "stateMutability": "view",
      "type": "function"
    },
    {
      "inputs": [
        {
          "internalType": "address",
          "name": "user",
          "type": "address"
        }
      ],
      "name": "getUserALPSize",
      "outputs": [
        {
          "internalType": "uint256",
          "name": "_size",
          "type": "uint256"
        }
      ],
      "stateMutability": "view",
      "type": "function"
    },
    {
      "inputs": [
        {
          "internalType": "address",
          "name": "user",
          "type": "address"
        }
      ],
      "name": "getUserFuturesStatus",
      "outputs": [
        {
          "components": [
            {
              "components": [
                {
                  "internalType": "int256",
                  "name": "qty",
                  "type": "int256"
                },
                {
                  "internalType": "int256",
                  "name": "lastAccFundingFactor",
                  "type": "int256"
                },
                {
                  "internalType": "uint256",
                  "name": "entryPrice",
                  "type": "uint256"
                }
              ],
              "internalType": "struct ContractReader.FuturesPosition[]",
              "name": "positions",
              "type": "tuple[]"
            },
            {
              "components": [
                {
                  "internalType": "address",
                  "name": "tokenAddress",
                  "type": "address"
                },
                {
                  "internalType": "uint256",
                  "name": "qty",
                  "type": "uint256"
                },
                {
                  "internalType": "uint256",
                  "name": "withdrawable",
                  "type": "uint256"
                },
                {
                  "internalType": "uint256",
                  "name": "initialWeight",
                  "type": "uint256"
                },
                {
                  "internalType": "uint256",
                  "name": "totalWeight",
                  "type": "uint256"
                }
              ],
              "internalType": "struct ContractReader.Collateral[]",
              "name": "collaterals",
              "type": "tuple[]"
            },
            {
              "internalType": "int256",
              "name": "usdBalance",
              "type": "int256"
            },
            {
              "internalType": "uint256",
              "name": "withdrawableUsd",
              "type": "uint256"
            },
            {
              "internalType": "int256",
              "name": "initialWeightedBalance",
              "type": "int256"
            },
            {
              "internalType": "int256",
              "name": "totalWeightedBalance",
              "type": "int256"
            },
            {
              "internalType": "int256",
              "name": "nonWeightedBalance",
              "type": "int256"
            },
            {
              "internalType": "int256",
              "name": "pendingFundingFee",
              "type": "int256"
            },
            {
              "internalType": "uint256",
              "name": "initialMargin",
              "type": "uint256"
            },
            {
              "internalType": "uint256",
              "name": "maintenanceMargin",
              "type": "uint256"
            },
            {
              "internalType": "uint256",
              "name": "blockNumber",
              "type": "uint256"
            },
            {
              "internalType": "uint32",
              "name": "feeDiscountRate",
              "type": "uint32"
            },
            {
              "internalType": "uint32",
              "name": "maxLeverage",
              "type": "uint32"
            }
          ],
          "internalType": "struct ContractReader.UserFuturesStatus",
          "name": "status",
          "type": "tuple"
        }
      ],
      "stateMutability": "view",
      "type": "function"
    },
    {
      "inputs": [
        {
          "internalType": "address",
          "name": "user",
          "type": "address"
        },
        {
          "internalType": "uint256[]",
          "name": "prices",
          "type": "uint256[]"
        }
      ],
      "name": "getUserFuturesStatusWithPrice",
      "outputs": [
        {
          "components": [
            {
              "components": [
                {
                  "internalType": "int256",
                  "name": "qty",
                  "type": "int256"
                },
                {
                  "internalType": "int256",
                  "name": "lastAccFundingFactor",
                  "type": "int256"
                },
                {
                  "internalType": "uint256",
                  "name": "entryPrice",
                  "type": "uint256"
                }
              ],
              "internalType": "struct ContractReader.FuturesPosition[]",
              "name": "positions",
              "type": "tuple[]"
            },
            {
              "components": [
                {
                  "internalType": "address",
                  "name": "tokenAddress",
                  "type": "address"
                },
                {
                  "internalType": "uint256",
                  "name": "qty",
                  "type": "uint256"
                },
                {
                  "internalType": "uint256",
                  "name": "withdrawable",
                  "type": "uint256"
                },
                {
                  "internalType": "uint256",
                  "name": "initialWeight",
                  "type": "uint256"
                },
                {
                  "internalType": "uint256",
                  "name": "totalWeight",
                  "type": "uint256"
                }
              ],
              "internalType": "struct ContractReader.Collateral[]",
              "name": "collaterals",
              "type": "tuple[]"
            },
            {
              "internalType": "int256",
              "name": "usdBalance",
              "type": "int256"
            },
            {
              "internalType": "uint256",
              "name": "withdrawableUsd",
              "type": "uint256"
            },
            {
              "internalType": "int256",
              "name": "initialWeightedBalance",
              "type": "int256"
            },
            {
              "internalType": "int256",
              "name": "totalWeightedBalance",
              "type": "int256"
            },
            {
              "internalType": "int256",
              "name": "nonWeightedBalance",
              "type": "int256"
            },
            {
              "internalType": "int256",
              "name": "pendingFundingFee",
              "type": "int256"
            },
            {
              "internalType": "uint256",
              "name": "initialMargin",
              "type": "uint256"
            },
            {
              "internalType": "uint256",
              "name": "maintenanceMargin",
              "type": "uint256"
            },
            {
              "internalType": "uint256",
              "name": "blockNumber",
              "type": "uint256"
            },
            {
              "internalType": "uint32",
              "name": "feeDiscountRate",
              "type": "uint32"
            },
            {
              "internalType": "uint32",
              "name": "maxLeverage",
              "type": "uint32"
            }
          ],
          "internalType": "struct ContractReader.UserFuturesStatus",
          "name": "status",
          "type": "tuple"
        }
      ],
      "stateMutability": "view",
      "type": "function"
    },
    {
      "inputs": [
        {
          "internalType": "address",
          "name": "user",
          "type": "address"
        }
      ],
      "name": "getUserLpStatus",
      "outputs": [
        {
          "components": [
            {
              "components": [
                {
                  "internalType": "uint256",
                  "name": "qty",
                  "type": "uint256"
                },
                {
                  "internalType": "uint256",
                  "name": "entryPrice",
                  "type": "uint256"
                }
              ],
              "internalType": "struct ContractReader.LpPosition",
              "name": "position",
              "type": "tuple"
            },
            {
              "components": [
                {
                  "internalType": "address",
                  "name": "tokenAddress",
                  "type": "address"
                },
                {
                  "internalType": "uint256",
                  "name": "qty",
                  "type": "uint256"
                },
                {
                  "internalType": "uint256",
                  "name": "withdrawable",
                  "type": "uint256"
                },
                {
                  "internalType": "uint256",
                  "name": "initialWeight",
                  "type": "uint256"
                },
                {
                  "internalType": "uint256",
                  "name": "totalWeight",
                  "type": "uint256"
                }
              ],
              "internalType": "struct ContractReader.Collateral[]",
              "name": "collaterals",
              "type": "tuple[]"
            },
            {
              "internalType": "int256",
              "name": "usdBalance",
              "type": "int256"
            },
            {
              "internalType": "uint256",
              "name": "withdrawableUsd",
              "type": "uint256"
            },
            {
              "internalType": "int256",
              "name": "initialWeightedBalance",
              "type": "int256"
            },
            {
              "internalType": "int256",
              "name": "totalWeightedBalance",
              "type": "int256"
            },
            {
              "internalType": "int256",
              "name": "nonWeightedBalance",
              "type": "int256"
            },
            {
              "internalType": "uint256",
              "name": "initialMargin",
              "type": "uint256"
            },
            {
              "internalType": "uint256",
              "name": "maintenanceMargin",
              "type": "uint256"
            },
            {
              "internalType": "uint256",
              "name": "blockNumber",
              "type": "uint256"
            },
            {
              "internalType": "uint32",
              "name": "feeRate",
              "type": "uint32"
            },
            {
              "internalType": "uint32",
              "name": "maxLeverage",
              "type": "uint32"
            }
          ],
          "internalType": "struct ContractReader.UserLpStatus",
          "name": "status",
          "type": "tuple"
        }
      ],
      "stateMutability": "view",
      "type": "function"
    },
    {
      "inputs": [
        {
          "internalType": "address",
          "name": "observer_",
          "type": "address"
        }
      ],
      "name": "initialize",
      "outputs": [],
      "stateMutability": "nonpayable",
      "type": "function"
    },
    {
      "inputs": [],
      "name": "observer",
      "outputs": [
        {
          "internalType": "address",
          "name": "",
          "type": "address"
        }
      ],
      "stateMutability": "view",
      "type": "function"
    }
  ],
  "bytecode": "0x608060405234801561001057600080fd5b5061588580620000216000396000f3fe608060405234801561001057600080fd5b50600436106100f65760003560e01c8063c8766cc911610092578063c8766cc9146101e1578063dd3be8351461020f578063de2c6d4114610222578063e083e31614610237578063e351f57b14610299578063eb70e498146102ac578063ec2c9016146102d2578063f91d443f146102e7578063f9940bcd146102fa57600080fd5b8063045ae6e4146100fb578063095c8aa5146101165780633b292a181461013e57806380314521146101515780638a587a7b146101715780638b9d82d414610184578063a30e397a1461018c578063c2c79dec146101ac578063c4d66de8146101cc575b600080fd5b61010361031a565b6040519081526020015b60405180910390f35b610129610124366004614c9c565b61039c565b6040805192835260208301919091520161010d565b61010361014c366004614ce6565b6104cd565b61016461015f366004614d4e565b61055b565b60405161010d9190614e56565b61016461017f366004614ce6565b611561565b61010361243f565b61019f61019a366004614f37565b612498565b60405161010d9190614f78565b6101bf6101ba366004614fbe565b612619565b60405161010d9190615091565b6101df6101da366004614ce6565b612865565b005b6101f46101ef3660046150ae565b6129b9565b6040805193845260208401929092529082015260600161010d565b61012961021d366004615116565b612e49565b61022a612f73565b60405161010d9190615142565b61024a610245366004615116565b6131c8565b604080516001600160a01b0390991689526020890197909752958701949094526060860192909252608085015263ffffffff1660a0840152151560c0830152151560e08201526101000161010d565b61022a6102a7366004614f37565b6132d5565b6000546102c5906201000090046001600160a01b031681565b60405161010d919061517a565b6102da6133bb565b60405161010d919061518e565b6101036102f53660046151d1565b6134f3565b61030d610308366004614ce6565b613515565b60405161010d91906151ea565b60008054610336906201000090046001600160a01b03166140fb565b6001600160a01b03166378d9a46e6040518163ffffffff1660e01b8152600401602060405180830381865afa158015610373573d6000803e3d6000fd5b505050506040513d601f19601f8201168201806040525081019061039791906152b1565b905090565b6000806103b56040518060200160405280600081525090565b6000546103d0906201000090046001600160a01b031661415f565b60405163ece91e3560e01b815263ffffffff881660048201526001600160a01b03919091169063ece91e3590602401608060405180830381865afa15801561041c573d6000803e3d6000fd5b505050506040513d601f19601f82011682018060405250810190610440919061532f565b5092506000915061045290508261419f565b9050600061045f836141d2565b905060006104a38963ffffffff16610494600060029054906101000a90046001600160a01b03166001600160a01b03166141f6565b6001600160a01b031690614236565b90506104b08784846142a9565b95506104bf88888585856142e4565b945050505050935093915050565b600080546104e9906201000090046001600160a01b03166140fb565b6001600160a01b03166355f57510836040518263ffffffff1660e01b8152600401610514919061517a565b602060405180830381865afa158015610531573d6000803e3d6000fd5b505050506040513d601f19601f8201168201806040525081019061055591906152b1565b92915050565b610563614b69565b436101408201526000546201000090046001600160a01b03166105858161415f565b6001600160a01b03166395adc2f26040518163ffffffff1660e01b8152600401602060405180830381865afa1580156105c2573d6000803e3d6000fd5b505050506040513d601f19601f820116820180604052508101906105e69190615377565b63ffffffff166001600160401b03811115610603576106036152ca565b60405190808252806020026020018201604052801561065857816020015b61064560405180606001604052806000815260200160008152602001600081525090565b8152602001906001900390816106215790505b50825261066d6001600160a01b03821661415f565b6001600160a01b0316630468674b6040518163ffffffff1660e01b8152600401602060405180830381865afa1580156106aa573d6000803e3d6000fd5b505050506040513d601f19601f820116820180604052508101906106ce9190615377565b63ffffffff166001600160401b038111156106eb576106eb6152ca565b60405190808252806020026020018201604052801561072457816020015b610711614bdd565b8152602001906001900390816107095790505b50602083018190525182515160009161073c91614382565b6001600160401b03811115610753576107536152ca565b60405190808252806020026020018201604052801561077c578160200160208202803683370190505b50905060005b815181101561080957848110156107cf578585828181106107a5576107a5615394565b905060200201358282815181106107be576107be615394565b6020026020010181815250506107f7565b6107d8816134f3565b8282815181106107ea576107ea615394565b6020026020010181815250505b80610801816153c0565b915050610782565b50600061081e836001600160a01b031661415f565b6001600160a01b0316635e5c06e2886040518263ffffffff1660e01b8152600401610849919061517a565b6040805180830381865afa158015610865573d6000803e3d6000fd5b505050506040513d601f19601f8201168201806040525081019061088991906153d9565b50905061089e836001600160a01b0316614398565b6001600160a01b031663265f003b8860016040518363ffffffff1660e01b81526004016108cc929190615406565b6040805180830381865afa1580156108e8573d6000803e3d6000fd5b505050506040513d601f19601f8201168201806040525081019061090c9190615433565b63ffffffff9081166101808701819052911661016086015260408501829052600090819061093d90620f4240615483565b905060006109496133bb565b905060005b87515163ffffffff82161015610e5b57610970876001600160a01b031661415f565b6001600160a01b031663160d8b288c836040518363ffffffff1660e01b815260040161099d9291906154a6565b6040805180830381865afa1580156109b9573d6000803e3d6000fd5b505050506040513d601f19601f820116820180604052508101906109dd91906154c5565b8951805163ffffffff85169081106109f7576109f7615394565b60200260200101516000018a600001518463ffffffff1681518110610a1e57610a1e615394565b6020908102919091018101510191909152528751805163ffffffff8316908110610a4a57610a4a615394565b602002602001015160000151600014610e4957610a6f876001600160a01b031661415f565b6001600160a01b0316638a7d6ac68c836040518363ffffffff1660e01b8152600401610a9c9291906154a6565b602060405180830381865afa158015610ab9573d6000803e3d6000fd5b505050506040513d601f19601f82011682018060405250810190610add91906152b1565b8851805163ffffffff8416908110610af757610af7615394565b60200260200101516040018181525050600080610b5b838b600001518563ffffffff1681518110610b2a57610b2a615394565b6020026020010151600001518a8663ffffffff1681518110610b4e57610b4e615394565b602002602001015161039c565b915091506000828b600001518563ffffffff1681518110610b7e57610b7e615394565b602002602001015160000151610b9491906154e9565b9050818b600001518563ffffffff1681518110610bb357610bb3615394565b602002602001015160000151610bc991906154e9565b8b604001818151610bda9190615519565b90525060008113610c4457612710610c22868663ffffffff1681518110610c0357610c03615394565b6020026020010151610140015163ffffffff168863ffffffff16614382565b610c2b83615541565b610c35919061555d565b610c3f9190615574565b610c76565b612710610c62868663ffffffff1681518110610c0357610c03615394565b610c6c908361555d565b610c769190615574565b8b61010001818151610c889190615588565b90525060008113610ce457612710858563ffffffff1681518110610cae57610cae615394565b6020026020010151610160015163ffffffff1682610ccb90615541565b610cd5919061555d565b610cdf9190615574565b610d27565b612710858563ffffffff1681518110610cff57610cff615394565b6020026020010151610160015163ffffffff1682610d1d919061555d565b610d279190615574565b8b61012001818151610d399190615588565b9052508a5180516402540be400919063ffffffff8716908110610d5e57610d5e615394565b602002602001015160200151868663ffffffff1681518110610d8257610d82615394565b60200260200101516060015142610d99919061559b565b878763ffffffff1681518110610db157610db1615394565b602002602001015160200151610dc791906154e9565b878763ffffffff1681518110610ddf57610ddf615394565b602002602001015160000151610df59190615519565b610dff91906155ae565b8c51805163ffffffff8816908110610e1957610e19615394565b602002602001015160000151610e2f91906154e9565b610e3991906155d5565b610e439088615519565b96505050505b80610e5381615603565b91505061094e565b5060e08701839052604087018051849190610e779083906155ae565b90525060009250829150600190505b8660200151518163ffffffff16101561125b57600080610eae886001600160a01b031661415f565b6040516318c261fd60e11b815263ffffffff851660048201526001600160a01b039190911690633184c3fa906024016040805180830381865afa158015610ef9573d6000803e3d6000fd5b505050506040513d601f19601f82011682018060405250810190610f1d9190615626565b90925090506001600160a01b038216610f37575050611249565b805160081c613fff1689602001518463ffffffff1681518110610f5c57610f5c615394565b602090810291909101015160600152805160161c613fff1689602001518463ffffffff1681518110610f9057610f90615394565b602002602001015160800181815250506000610fb4896001600160a01b031661415f565b6001600160a01b031663e51e119e8e856040518363ffffffff1660e01b8152600401610fe1929190615653565b602060405180830381865afa158015610ffe573d6000803e3d6000fd5b505050506040513d601f19601f8201168201806040525081019061102291906152b1565b825190915060321c601f1661103890600a615751565b6110449061271061555d565b8a602001518563ffffffff168151811061106057611060615394565b602002602001015160600151898663ffffffff168151811061108457611084615394565b602002602001015183611097919061555d565b6110a1919061555d565b6110b0906402540be40061555d565b6110ba9190615574565b6110c49087615588565b825190965060321c601f166110da90600a615751565b6110e69061271061555d565b8a602001518563ffffffff168151811061110257611102615394565b602002602001015160800151898663ffffffff168151811061112657611126615394565b602002602001015183611139919061555d565b611143919061555d565b611152906402540be40061555d565b61115c9190615574565b6111669086615588565b825190955060321c601f1661117c90600a615751565b888563ffffffff168151811061119457611194615394565b6020026020010151826111a7919061555d565b6111b6906402540be40061555d565b6111c09190615574565b8a60c0018181516111d19190615519565b90525060208a0151805184919063ffffffff87169081106111f4576111f4615394565b6020026020010151600001906001600160a01b031690816001600160a01b031681525050808a602001518563ffffffff168151811061123557611235615394565b602002602001015160200181815250505050505b8061125381615603565b915050610e86565b5081866040015161126c9190615519565b60808701526040860151611281908290615519565b60a0870152604086015160c08701805161129c908390615519565b90525060015b8660200151518163ffffffff1610156114f657866101000151876080015112156112f957600087602001518263ffffffff16815181106112e4576112e4615394565b602002602001015160400181815250506114e4565b60008061130e886001600160a01b031661415f565b6040516318c261fd60e11b815263ffffffff851660048201526001600160a01b039190911690633184c3fa906024016040805180830381865afa158015611359573d6000803e3d6000fd5b505050506040513d601f19601f8201168201806040525081019061137d9190615626565b90925090506001600160a01b0382166113975750506114e4565b6000670de0b6b3a76400006127108b602001518663ffffffff16815181106113c1576113c1615394565b6020026020010151606001518a8763ffffffff16815181106113e5576113e5615394565b60200260200101516113f7919061555d565b6114019190615574565b835160321c601f1661141490600a615751565b8c61010001518d60800151611429919061559b565b611433919061555d565b611441906305f5e10061555d565b61144b9190615574565b6114559190615574565b905089602001518463ffffffff168151811061147357611473615394565b602002602001015160200151811161148b57806114b4565b89602001518463ffffffff16815181106114a7576114a7615394565b6020026020010151602001515b8a602001518563ffffffff16815181106114d0576114d0615394565b602002602001015160400181815250505050505b806114ee81615603565b9150506112a2565b506000828761010001511161150c57600061151d565b8287610100015161151d919061559b565b9050600081886040015161153191906155ae565b1261154b57808760400151611546919061559b565b61154e565b60005b6060880152509498975050505050505050565b611569614b69565b4361014082015260005461158b906201000090046001600160a01b031661415f565b6001600160a01b03166395adc2f26040518163ffffffff1660e01b8152600401602060405180830381865afa1580156115c8573d6000803e3d6000fd5b505050506040513d601f19601f820116820180604052508101906115ec9190615377565b63ffffffff166001600160401b03811115611609576116096152ca565b60405190808252806020026020018201604052801561165e57816020015b61164b60405180606001604052806000815260200160008152602001600081525090565b8152602001906001900390816116275790505b50815260005461167c906201000090046001600160a01b031661415f565b6001600160a01b0316630468674b6040518163ffffffff1660e01b8152600401602060405180830381865afa1580156116b9573d6000803e3d6000fd5b505050506040513d601f19601f820116820180604052508101906116dd9190615377565b63ffffffff166001600160401b038111156116fa576116fa6152ca565b60405190808252806020026020018201604052801561173357816020015b611720614bdd565b8152602001906001900390816117185790505b50602082015260006117436133bb565b6000805491925090611763906201000090046001600160a01b031661415f565b6001600160a01b0316635e5c06e2856040518263ffffffff1660e01b815260040161178e919061517a565b6040805180830381865afa1580156117aa573d6000803e3d6000fd5b505050506040513d601f19601f820116820180604052508101906117ce91906153d9565b506000549091506117ed906201000090046001600160a01b0316614398565b6001600160a01b031663265f003b8560016040518363ffffffff1660e01b815260040161181b929190615406565b6040805180830381865afa158015611837573d6000803e3d6000fd5b505050506040513d601f19601f8201168201806040525081019061185b9190615433565b63ffffffff9081166101808601819052911661016085015260009061188390620f4240615483565b6040850183905290506000805b85515163ffffffff82161015611d70576000546118bb906201000090046001600160a01b031661415f565b6001600160a01b031663160d8b2888836040518363ffffffff1660e01b81526004016118e89291906154a6565b6040805180830381865afa158015611904573d6000803e3d6000fd5b505050506040513d601f19601f8201168201806040525081019061192891906154c5565b8751805163ffffffff851690811061194257611942615394565b602002602001015160000188600001518463ffffffff168151811061196957611969615394565b6020908102919091018101510191909152528551805163ffffffff831690811061199557611995615394565b602002602001015160000151600014611d5e576000546119c3906201000090046001600160a01b031661415f565b6001600160a01b0316638a7d6ac688836040518363ffffffff1660e01b81526004016119f09291906154a6565b602060405180830381865afa158015611a0d573d6000803e3d6000fd5b505050506040513d601f19601f82011682018060405250810190611a3191906152b1565b8651805163ffffffff8416908110611a4b57611a4b615394565b60200260200101516040018181525050600080611a8f8389600001518563ffffffff1681518110611a7e57611a7e615394565b602002602001015160000151612e49565b9150915060008289600001518563ffffffff1681518110611ab257611ab2615394565b602002602001015160000151611ac891906154e9565b90508189600001518563ffffffff1681518110611ae757611ae7615394565b602002602001015160000151611afd91906154e9565b89604001818151611b0e9190615519565b90525060008113611b5957612710611b37898663ffffffff1681518110610c0357610c03615394565b611b4083615541565b611b4a919061555d565b611b549190615574565b611b8b565b612710611b77898663ffffffff1681518110610c0357610c03615394565b611b81908361555d565b611b8b9190615574565b8961010001818151611b9d9190615588565b90525060008113611bf957612710888563ffffffff1681518110611bc357611bc3615394565b6020026020010151610160015163ffffffff1682611be090615541565b611bea919061555d565b611bf49190615574565b611c3c565b612710888563ffffffff1681518110611c1457611c14615394565b6020026020010151610160015163ffffffff1682611c32919061555d565b611c3c9190615574565b8961012001818151611c4e9190615588565b905250885180516402540be400919063ffffffff8716908110611c7357611c73615394565b602002602001015160200151898663ffffffff1681518110611c9757611c97615394565b60200260200101516060015142611cae919061559b565b8a8763ffffffff1681518110611cc657611cc6615394565b602002602001015160200151611cdc91906154e9565b8a8763ffffffff1681518110611cf457611cf4615394565b602002602001015160000151611d0a9190615519565b611d1491906155ae565b8a51805163ffffffff8816908110611d2e57611d2e615394565b602002602001015160000151611d4491906154e9565b611d4e91906155d5565b611d589086615519565b94505050505b80611d6881615603565b915050611890565b5060e08501819052604085018051829190611d8c9083906155ae565b905250600090508060015b8660200151518163ffffffff16101561214357600080548190611dc8906201000090046001600160a01b031661415f565b6040516318c261fd60e11b815263ffffffff851660048201526001600160a01b039190911690633184c3fa906024016040805180830381865afa158015611e13573d6000803e3d6000fd5b505050506040513d601f19601f82011682018060405250810190611e379190615626565b90925090506001600160a01b038216611e51575050612131565b805160081c613fff1689602001518463ffffffff1681518110611e7657611e76615394565b602090810291909101015160600152805160161c613fff1689602001518463ffffffff1681518110611eaa57611eaa615394565b60209081029190910101516080015260008054611ed5906201000090046001600160a01b031661415f565b6001600160a01b031663e51e119e8c856040518363ffffffff1660e01b8152600401611f02929190615653565b602060405180830381865afa158015611f1f573d6000803e3d6000fd5b505050506040513d601f19601f82011682018060405250810190611f4391906152b1565b825190915060321c601f16611f5990600a615751565b611f659061271061555d565b8a602001518563ffffffff1681518110611f8157611f81615394565b602002602001015160600151611f9b6102f5855160ff1690565b611fa5908461555d565b611faf919061555d565b611fbe906402540be40061555d565b611fc89190615574565b611fd29087615588565b825190965060321c601f16611fe890600a615751565b611ff49061271061555d565b8a602001518563ffffffff168151811061201057612010615394565b60200260200101516080015161202a6102f5855160ff1690565b612034908461555d565b61203e919061555d565b61204d906402540be40061555d565b6120579190615574565b6120619086615588565b825190955060321c601f1661207790600a615751565b6120856102f5845160ff1690565b61208f908361555d565b61209e906402540be40061555d565b6120a89190615574565b8a60c0018181516120b99190615519565b90525060208a0151805184919063ffffffff87169081106120dc576120dc615394565b6020026020010151600001906001600160a01b031690816001600160a01b031681525050808a602001518563ffffffff168151811061211d5761211d615394565b602002602001015160200181815250505050505b8061213b81615603565b915050611d97565b508186604001516121549190615519565b60808701526040860151612169908290615519565b60a0870152604086015160c087018051612184908390615519565b90525060015b8660200151518163ffffffff1610156123d657866101000151876080015112156121e157600087602001518263ffffffff16815181106121cc576121cc615394565b602002602001015160400181815250506123c4565b6000805481906121ff906201000090046001600160a01b031661415f565b6040516318c261fd60e11b815263ffffffff851660048201526001600160a01b039190911690633184c3fa906024016040805180830381865afa15801561224a573d6000803e3d6000fd5b505050506040513d601f19601f8201168201806040525081019061226e9190615626565b90925090506001600160a01b0382166122885750506123c4565b6000670de0b6b3a76400006127108b602001518663ffffffff16815181106122b2576122b2615394565b6020026020010151606001516122cd8763ffffffff166134f3565b6122d7919061555d565b6122e19190615574565b835160321c601f166122f490600a615751565b8c61010001518d60800151612309919061559b565b612313919061555d565b612321906305f5e10061555d565b61232b9190615574565b6123359190615574565b905089602001518463ffffffff168151811061235357612353615394565b602002602001015160200151811161236b5780612394565b89602001518463ffffffff168151811061238757612387615394565b6020026020010151602001515b8a602001518563ffffffff16815181106123b0576123b0615394565b602002602001015160400181815250505050505b806123ce81615603565b91505061218a565b50600082876101000151116123ec5760006123fd565b828761010001516123fd919061559b565b9050600081886040015161241191906155ae565b1261242b57808760400151612426919061559b565b61242e565b60005b606088015250949695505050505050565b6000805461245b906201000090046001600160a01b03166140fb565b6001600160a01b031663fa5a2e626040518163ffffffff1660e01b8152600401602060405180830381865afa158015610373573d6000803e3d6000fd5b6060816000816001600160401b038111156124b5576124b56152ca565b6040519080825280602002602001820160405280156124de578160200160208202803683370190505b5060008054919250620100009091046001600160a01b0316905b838163ffffffff16101561260e5760008061251b846001600160a01b03166143d8565b6001600160a01b031663c14ffdb98a8a8663ffffffff1681811061254157612541615394565b90506020020160208101906125569190614fbe565b6040516001600160e01b031960e084901b16815263ffffffff919091166004820152602401606060405180830381865afa158015612598573d6000803e3d6000fd5b505050506040513d601f19601f820116820180604052508101906125bc919061575d565b5063ffffffff16915063ffffffff16915080821415858463ffffffff16815181106125e9576125e9615394565b911515602092830291909101909101525081905061260681615603565b9150506124f8565b509095945050505050565b612621614c15565b6000805461263d906201000090046001600160a01b031661415f565b90506126556040518060200160405280600081525090565b6040805160208101825260008152905163ece91e3560e01b815263ffffffff861660048201526001600160a01b0384169063ece91e3590602401608060405180830381865afa1580156126ac573d6000803e3d6000fd5b505050506040513d601f19601f820116820180604052508101906126d0919061532f565b60208801929092529186526040516378ad146f60e11b815263ffffffff8816600482015291935091506001600160a01b0384169063f15a28de90602401602060405180830381865afa15801561272a573d6000803e3d6000fd5b505050506040513d601f19601f8201168201806040525081019061274e91906152b1565b610120850152604051633266a6eb60e21b815263ffffffff861660048201526001600160a01b0384169063c99a9bac90602401602060405180830381865afa15801561279e573d6000803e3d6000fd5b505050506040513d601f19601f820116820180604052508101906127c291906152b1565b6101008501526127d18261419f565b60408501526127df826141d2565b60808501526127ed82614418565b60c08501526127fb8261443c565b60a0850152815160411c63ffffffff16606085015261281982614460565b8460e00190600381111561282f5761282f614fdb565b9081600381111561284257612842614fdb565b905250905160bb1c613fff90811661014085015290511661016083015250919050565b600054600190610100900460ff16158015612887575060005460ff8083169116105b6128ef5760405162461bcd60e51b815260206004820152602e60248201527f496e697469616c697a61626c653a20636f6e747261637420697320616c72656160448201526d191e481a5b9a5d1a585b1a5e995960921b60648201526084015b60405180910390fd5b6000805461ffff191660ff8316176101001790556001600160a01b0382166129595760405162461bcd60e51b815260206004820152601b60248201527f4f627365727665722073686f756c642062652070726f7669646564000000000060448201526064016128e6565b60008054610100600160b01b031916620100006001600160a01b0385160261ff00191617905560405160ff821681527f7f26b83ff96e1f2b6a682f133852f6798a09c465da95921460cefb38474024989060200160405180910390a15050565b600080548190819081906129dc906201000090046001600160a01b031688614482565b905060006129f66040518060200160405280600081525090565b60008715612bdd5760008054612a1a906201000090046001600160a01b03166140fb565b9050806001600160a01b031663e51e119e8e8c6040518363ffffffff1660e01b8152600401612a4a929190615653565b602060405180830381865afa158015612a67573d6000803e3d6000fd5b505050506040513d601f19601f82011682018060405250810190612a8b91906152b1565b93506000816001600160a01b0316639cbb41828c6040518263ffffffff1660e01b8152600401612abb919061517a565b602060405180830381865afa158015612ad8573d6000803e3d6000fd5b505050506040513d601f19601f82011682018060405250810190612afc9190615377565b6040516318c261fd60e11b815263ffffffff821660048201529091506001600160a01b03831690633184c3fa906024016040805180830381865afa158015612b48573d6000803e3d6000fd5b505050506040513d601f19601f82011682018060405250810190612b6c9190615626565b905080945050816001600160a01b031663a7c1abe06040518163ffffffff1660e01b8152600401602060405180830381865afa158015612bb0573d6000803e3d6000fd5b505050506040513d601f19601f82011682018060405250810190612bd491906152b1565b92505050612db8565b60008054612bf9906201000090046001600160a01b031661415f565b9050806001600160a01b031663e51e119e8e8c6040518363ffffffff1660e01b8152600401612c29929190615653565b602060405180830381865afa158015612c46573d6000803e3d6000fd5b505050506040513d601f19601f82011682018060405250810190612c6a91906152b1565b93506000816001600160a01b0316639cbb41828c6040518263ffffffff1660e01b8152600401612c9a919061517a565b602060405180830381865afa158015612cb7573d6000803e3d6000fd5b505050506040513d601f19601f82011682018060405250810190612cdb9190615377565b6040516318c261fd60e11b815263ffffffff821660048201529091506001600160a01b03831690633184c3fa906024016040805180830381865afa158015612d27573d6000803e3d6000fd5b505050506040513d601f19601f82011682018060405250810190612d4b9190615626565b905080945050816001600160a01b031663a7c1abe06040518163ffffffff1660e01b8152600401602060405180830381865afa158015612d8f573d6000803e3d6000fd5b505050506040513d601f19601f82011682018060405250810190612db391906152b1565b925050505b612e34600060029054906101000a90046001600160a01b03166040518060a0016040528060006001600160a01b031681526020018f6001600160a01b031681526020018d6001600160a01b031681526020018c6001600160a01b031681526020018e815250856040518060200160405280868152508887614528565b919e909d50909b509950505050505050505050565b600080612e626040518060200160405280600081525090565b600054612e7d906201000090046001600160a01b031661415f565b60405163ece91e3560e01b815263ffffffff871660048201526001600160a01b03919091169063ece91e3590602401608060405180830381865afa158015612ec9573d6000803e3d6000fd5b505050506040513d601f19601f82011682018060405250810190612eed919061532f565b50600080549194509250829150612f2d9063ffffffff891690612f1e906201000090046001600160a01b03166141f6565b6001600160a01b0316906147c3565b915091506000612f3c8461419f565b90506000612f49856141d2565b9050612f568483836142a9565b9650612f6588858484876142e4565b955050505050509250929050565b6000805460609190612f93906201000090046001600160a01b031661415f565b6001600160a01b03166395adc2f26040518163ffffffff1660e01b8152600401602060405180830381865afa158015612fd0573d6000803e3d6000fd5b505050506040513d601f19601f82011682018060405250810190612ff49190615377565b6000805491925090613014906201000090046001600160a01b03166140fb565b6001600160a01b031663fa5a2e626040518163ffffffff1660e01b8152600401602060405180830381865afa158015613051573d6000803e3d6000fd5b505050506040513d601f19601f8201168201806040525081019061307591906152b1565b90508163ffffffff166001600160401b03811115613095576130956152ca565b6040519080825280602002602001820160405280156130be578160200160208202803683370190505b50925060015b8263ffffffff168163ffffffff1610156131c257600080546130f4906201000090046001600160a01b031661415f565b60405163ece91e3560e01b815263ffffffff841660048201526001600160a01b03919091169063ece91e3590602401608060405180830381865afa158015613140573d6000803e3d6000fd5b505050506040513d601f19601f82011682018060405250810190613164919061532f565b5092505050826131738261419f565b613182906402540be4006154e9565b61318c91906155d5565b858363ffffffff16815181106131a4576131a4615394565b602090810291909101015250806131ba81615603565b9150506130c4565b50505090565b6000806000806000806000806131ea6040518060200160405280600081525090565b600054613205906201000090046001600160a01b03166143d8565b6040516314a19a3160e21b815263ffffffff8d166004820152602481018c90526001600160a01b03919091169063528668c490604401606060405180830381865afa158015613258573d6000803e3d6000fd5b505050506040513d601f19601f8201168201806040525081019061327c91906157aa565b919a5098509050600061328e8261483b565b9050806000015181602001518260400151836060015184608001518560a00151809850819950829a50839b50849c50859d5050505050505050509295985092959890939650565b6060816000816001600160401b038111156132f2576132f26152ca565b60405190808252806020026020018201604052801561331b578160200160208202803683370190505b5060008054919250620100009091046001600160a01b0316905b838163ffffffff16101561260e5761338687878363ffffffff1681811061335e5761335e615394565b90506020020135613377846001600160a01b03166141f6565b6001600160a01b031690614908565b838263ffffffff168151811061339e5761339e615394565b6020908102919091010152806133b381615603565b915050613335565b60008054606091906133db906201000090046001600160a01b031661415f565b6001600160a01b03166395adc2f26040518163ffffffff1660e01b8152600401602060405180830381865afa158015613418573d6000803e3d6000fd5b505050506040513d601f19601f8201168201806040525081019061343c9190615377565b90508063ffffffff166001600160401b0381111561345c5761345c6152ca565b60405190808252806020026020018201604052801561349557816020015b613482614c15565b81526020019060019003908161347a5790505b50915060005b8163ffffffff168163ffffffff1610156134ee576134b881612619565b838263ffffffff16815181106134d0576134d0615394565b602002602001018190525080806134e690615603565b91505061349b565b505090565b60008054610555908390613377906201000090046001600160a01b03166141f6565b613598604080516101c08101909152600061018082018181526101a083019190915281908152602001606081526020016000815260200160008152602001600081526020016000815260200160008152602001600081526020016000815260200160008152602001600063ffffffff168152602001600063ffffffff1681525090565b436101208201526000546135ba906201000090046001600160a01b03166140fb565b6001600160a01b0316630468674b6040518163ffffffff1660e01b8152600401602060405180830381865afa1580156135f7573d6000803e3d6000fd5b505050506040513d601f19601f8201168201806040525081019061361b9190615377565b63ffffffff166001600160401b03811115613638576136386152ca565b60405190808252806020026020018201604052801561367157816020015b61365e614bdd565b8152602001906001900390816136565790505b50602082015260008054613693906201000090046001600160a01b03166140fb565b6001600160a01b0316635e5c06e2846040518263ffffffff1660e01b81526004016136be919061517a565b6040805180830381865afa1580156136da573d6000803e3d6000fd5b505050506040513d601f19601f820116820180604052508101906136fe91906153d9565b5060005490915061371d906201000090046001600160a01b0316614398565b6001600160a01b031663265f003b8460006040518363ffffffff1660e01b815260040161374b929190615406565b6040805180830381865afa158015613767573d6000803e3d6000fd5b505050506040513d601f19601f8201168201806040525081019061378b9190615433565b63ffffffff90811661016085015216610140830152604082018190526000546137c2906201000090046001600160a01b03166140fb565b6001600160a01b03166355f57510846040518263ffffffff1660e01b81526004016137ed919061517a565b602060405180830381865afa15801561380a573d6000803e3d6000fd5b505050506040513d601f19601f8201168201806040525081019061382e91906152b1565b82515260005461384c906201000090046001600160a01b03166140fb565b6001600160a01b031663d19d30ad846040518263ffffffff1660e01b8152600401613877919061517a565b602060405180830381865afa158015613894573d6000803e3d6000fd5b505050506040513d601f19601f820116820180604052508101906138b891906152b1565b825160200152600080546138da906201000090046001600160a01b03166140fb565b6001600160a01b03166378d9a46e6040518163ffffffff1660e01b8152600401602060405180830381865afa158015613917573d6000803e3d6000fd5b505050506040513d601f19601f8201168201806040525081019061393b91906152b1565b835151613948919061555d565b9050612710836101600151620f42406139619190615483565b6139719063ffffffff168361555d565b61397b9190615574565b60e0840152604080516020810190915260005461271091613a1b9181906139b0906201000090046001600160a01b03166140fb565b6001600160a01b0316631c580ad56040518163ffffffff1660e01b8152600401602060405180830381865afa1580156139ed573d6000803e3d6000fd5b505050506040513d601f19601f82011682018060405250810190613a1191906152b1565b905251613fff1690565b613a2b9063ffffffff168361555d565b613a359190615574565b610100840152604083018051829190613a4f908390615519565b90525060008060015b8560200151518163ffffffff161015613e0457600080548190613a89906201000090046001600160a01b03166140fb565b6040516318c261fd60e11b815263ffffffff851660048201526001600160a01b039190911690633184c3fa906024016040805180830381865afa158015613ad4573d6000803e3d6000fd5b505050506040513d601f19601f82011682018060405250810190613af89190615626565b90925090506001600160a01b038216613b12575050613df2565b805160081c613fff1688602001518463ffffffff1681518110613b3757613b37615394565b602090810291909101015160600152805160161c613fff1688602001518463ffffffff1681518110613b6b57613b6b615394565b60209081029190910101516080015260008054613b96906201000090046001600160a01b03166140fb565b6001600160a01b031663e51e119e8b856040518363ffffffff1660e01b8152600401613bc3929190615653565b602060405180830381865afa158015613be0573d6000803e3d6000fd5b505050506040513d601f19601f82011682018060405250810190613c0491906152b1565b825190915060321c601f16613c1a90600a615751565b613c269061271061555d565b89602001518563ffffffff1681518110613c4257613c42615394565b602002602001015160600151613c5c6102f5855160ff1690565b613c66908461555d565b613c70919061555d565b613c7f906402540be40061555d565b613c899190615574565b613c939087615588565b825190965060321c601f16613ca990600a615751565b613cb59061271061555d565b89602001518563ffffffff1681518110613cd157613cd1615394565b602002602001015160800151613ceb6102f5855160ff1690565b613cf5908461555d565b613cff919061555d565b613d0e906402540be40061555d565b613d189190615574565b613d229086615588565b825190955060321c601f16613d3890600a615751565b613d466102f5845160ff1690565b613d50908361555d565b613d5f906402540be40061555d565b613d699190615574565b8960c001818151613d7a9190615519565b9052506020890151805184919063ffffffff8716908110613d9d57613d9d615394565b6020026020010151600001906001600160a01b031690816001600160a01b0316815250508089602001518563ffffffff1681518110613dde57613dde615394565b602002602001015160200181815250505050505b80613dfc81615603565b915050613a58565b50818560400151613e159190615519565b60808601526040850151613e2a908290615519565b60a0860152604085015160c086018051613e45908390615519565b90525060015b8560200151518163ffffffff161015614095578560e0015186608001511215613ea157600086602001518263ffffffff1681518110613e8c57613e8c615394565b60200260200101516040018181525050614083565b600080548190613ebf906201000090046001600160a01b03166140fb565b6040516318c261fd60e11b815263ffffffff851660048201526001600160a01b039190911690633184c3fa906024016040805180830381865afa158015613f0a573d6000803e3d6000fd5b505050506040513d601f19601f82011682018060405250810190613f2e9190615626565b90925090506001600160a01b038216613f48575050614083565b6000670de0b6b3a76400006127108a602001518663ffffffff1681518110613f7257613f72615394565b602002602001015160600151613f8d8763ffffffff166134f3565b613f97919061555d565b613fa19190615574565b835160321c601f16613fb490600a615751565b8b60e001518c60800151613fc8919061559b565b613fd2919061555d565b613fe0906305f5e10061555d565b613fea9190615574565b613ff49190615574565b905088602001518463ffffffff168151811061401257614012615394565b602002602001015160200151811161402a5780614053565b88602001518463ffffffff168151811061404657614046615394565b6020026020010151602001515b89602001518563ffffffff168151811061406f5761406f615394565b602002602001015160400181815250505050505b8061408d81615603565b915050613e4b565b506000828660e00151116140aa5760006140ba565b828660e001516140ba919061559b565b905060008187604001516140ce91906155ae565b126140e8578086604001516140e3919061559b565b6140eb565b60005b6060870152509395945050505050565b6000816001600160a01b031663b906f15a6040518163ffffffff1660e01b8152600401602060405180830381865afa15801561413b573d6000803e3d6000fd5b505050506040513d601f19601f8201168201806040525081019061055591906157ea565b6000816001600160a01b031663af8e64226040518163ffffffff1660e01b8152600401602060405180830381865afa15801561413b573d6000803e3d6000fd5b80516000906001600160401b03811690600160401b1682036141c9576141c481615541565b6141cb565b805b9392505050565b60006061633fffffff60611b836000015116901c6402540be400610555919061555d565b6000816001600160a01b0316632630c12f6040518163ffffffff1660e01b8152600401602060405180830381865afa15801561413b573d6000803e3d6000fd5b60405163700116b560e11b8152600481018290526000906001600160a01b0384169063e0022d6a906024016040805180830381865afa15801561427d573d6000803e3d6000fd5b505050506040513d601f19601f820116820180604052508101906142a191906154c5565b949350505050565b600083816064846142ba87856154e9565b6142c491906155d5565b6142ce91906155d5565b90506142da8183615519565b9695505050505050565b600084816064856142f660028b6155d5565b61430090896155ae565b61430a90856154e9565b61431491906155d5565b61431e91906155d5565b90506000620186a060028460008c136143375787614340565b61434088615541565b61434a91906154e9565b61435491906155d5565b61435e91906155d5565b90508061436b8385615519565b6143759190615519565b9998505050505050505050565b600081831161439157816141cb565b5090919050565b6000816001600160a01b03166370fac6736040518163ffffffff1660e01b8152600401602060405180830381865afa15801561413b573d6000803e3d6000fd5b6000816001600160a01b0316635e9658d26040518163ffffffff1660e01b8152600401602060405180830381865afa15801561413b573d6000803e3d6000fd5b6000607f633fffffff607f1b836000015116901c6402540be400610555919061555d565b6000609d633fffffff609d1b836000015116901c6402540be400610555919061555d565b600060c9600360c91b836000015116901c600381111561055557610555614fdb565b6040805160608101825260008082526020820181905281830152905163d277b62d60e01b81526001600160a01b0384169063d277b62d906144c790859060040161517a565b606060405180830381865afa1580156144e4573d6000803e3d6000fd5b505050506040513d601f19601f820116820180604052508101906145089190615807565b1515604084015260ff1660208301526001600160a01b0316815292915050565b600080600061457c6040518061012001604052806000815260200160008152602001600081526020016000815260200160008152602001600081526020016000815260200160008152602001600081525090565b61459981866145938d6001600160a01b03166141f6565b8a614975565b80516101008201516145b291908a9060089060126149dc565b604082015260c081015188108015906146bc576002826040018181516145d89190615574565b90525060808a015160208801516145f4919060ff166012614a58565b602083015260a082015161466d9061460e90612710615588565b604084015161461f9061271061555d565b6146299190615574565b8360e001518460a0015161463d919061555d565b61464b906305f5e100615588565b602085015161465e906305f5e10061555d565b6146689190615574565b614aa6565b606083015260a08201516146b590612710906146899082615588565b8460600151614698919061555d565b6146a29190615574565b8351610100850151601290600890614ab5565b9350614703565b60a08201518994506146d090612710615588565b8260a0015183604001516146e4919061555d565b6146ee9190615574565b82604001516146fd919061559b565b60608301525b6305f5e1008260e001518360a001518460600151614721919061555d565b61472b919061555d565b6147359190615574565b925061475a83836060015161474a9190615588565b602089015160129060ff16614a58565b9450806147b557848a6080015110156147b55760405162461bcd60e51b815260206004820152601d60248201527f4e6f742061626c6520746f207061727469616c206c697175696461746500000060448201526064016128e6565b505096509650969350505050565b60405163700116b560e11b81526004810182905260009081906001600160a01b0385169063e0022d6a906024016040805180830381865afa15801561480c573d6000803e3d6000fd5b505050506040513d601f19601f8201168201806040525081019061483091906154c5565b909590945092505050565b6040805160e081018252600080825260208201819052918101829052606081018290526080810182905260a0810182905260c08101919091526040518060e0016040528061489184516701ffffffffffffff1690565b8152835160391c663fffffffffffff90811660208301528451606f1c166040820152835160a51c60ff1660608201528351608090910190600160ad1b161515151581526020016148e78451600160ae1b16151590565b151581526020016148fe8451600160cf1b16151590565b1515905292915050565b60405163f91d443f60e01b8152600481018290526000906001600160a01b0384169063f91d443f906024015b602060405180830381865afa158015614951573d6000803e3d6000fd5b505050506040513d601f19601f820116820180604052508101906141cb91906152b1565b614993614983845160ff1690565b6001600160a01b03841690614b15565b8452825160241c613fff166149a784614b45565b8251600e1c613fff16855160321c601f1661010088015260e087015260c086015263ffffffff1660a090940193909352505050565b6000806149e98486615588565b9050828110614a22576149fc838261559b565b614a0790600a615751565b614a11878961555d565b614a1b9190615574565b9150614a4e565b614a2c818461559b565b614a3790600a615751565b614a41878961555d565b614a4b919061555d565b91505b5095945050505050565b6000818310614a8757614a6b828461559b565b614a7690600a615751565b614a809085615574565b90506141cb565b614a91838361559b565b614a9c90600a615751565b6142a1908561555d565b600081831061439157816141cb565b600080614ac28385615588565b905084811115614aec5785614ad7868361559b565b614ae290600a615751565b614a11908961555d565b614af6818661559b565b614b0190600a615751565b614b0b8789615574565b614a4b9190615574565b60405163140d260f60e11b8152600481018290526000906001600160a01b0384169063281a4c1e90602401614934565b805160009061055590641fffffffff603982901c169060029060321c601f16614a58565b604051806101a001604052806060815260200160608152602001600081526020016000815260200160008152602001600081526020016000815260200160008152602001600081526020016000815260200160008152602001600063ffffffff168152602001600063ffffffff1681525090565b6040518060a0016040528060006001600160a01b03168152602001600081526020016000815260200160008152602001600081525090565b6040518061018001604052806000815260200160008152602001600081526020016000815260200160008152602001600081526020016000815260200160006003811115614c6557614c65614fdb565b8152600060208201819052604082018190526060820181905260809091015290565b63ffffffff81168114614c9957600080fd5b50565b600080600060608486031215614cb157600080fd5b8335614cbc81614c87565b95602085013595506040909401359392505050565b6001600160a01b0381168114614c9957600080fd5b600060208284031215614cf857600080fd5b81356141cb81614cd1565b60008083601f840112614d1557600080fd5b5081356001600160401b03811115614d2c57600080fd5b6020830191508360208260051b8501011115614d4757600080fd5b9250929050565b600080600060408486031215614d6357600080fd5b8335614d6e81614cd1565b925060208401356001600160401b03811115614d8957600080fd5b614d9586828701614d03565b9497909650939450505050565b600081518084526020808501945080840160005b83811015614de85781518051885283810151848901526040908101519088015260609096019590820190600101614db6565b509495945050505050565b600081518084526020808501945080840160005b83811015614de857815180516001600160a01b03168852838101518489015260408082015190890152606080820151908901526080908101519088015260a09096019590820190600101614e07565b60208152600082516101a0806020850152614e756101c0850183614da2565b91506020850151601f19858403016040860152614e928382614df3565b9250506040850151606085015260608501516080850152608085015160a085015260a085015160c085015260c085015160e085015260e0850151610100818187015280870151915050610120818187015280870151915050610140818187015280870151915050610160818187015280870151915050610180614f1c8187018363ffffffff169052565b86015163ffffffff81168387015290505b5090949350505050565b60008060208385031215614f4a57600080fd5b82356001600160401b03811115614f6057600080fd5b614f6c85828601614d03565b90969095509350505050565b6020808252825182820181905260009190848201906040850190845b81811015614fb2578351151583529284019291840191600101614f94565b50909695505050505050565b600060208284031215614fd057600080fd5b81356141cb81614c87565b634e487b7160e01b600052602160045260246000fd5b6004811061500157615001614fdb565b9052565b805182526020810151602083015260408101516040830152606081015160608301526080810151608083015260a081015160a083015260c081015160c083015260e081015161505760e0840182614ff1565b50610100818101519083015261012080820151908301526101408082015163ffffffff908116918401919091526101609182015116910152565b61018081016105558284615005565b8015158114614c9957600080fd5b600080600080600060a086880312156150c657600080fd5b85356150d181614cd1565b94506020860135935060408601356150e881614cd1565b925060608601356150f881614cd1565b91506080860135615108816150a0565b809150509295509295909350565b6000806040838503121561512957600080fd5b823561513481614c87565b946020939093013593505050565b6020808252825182820181905260009190848201906040850190845b81811015614fb25783518352928401929184019160010161515e565b6001600160a01b0391909116815260200190565b6020808252825182820181905260009190848201906040850190845b81811015614fb2576151bd838551615005565b9284019261018092909201916001016151aa565b6000602082840312156151e357600080fd5b5035919050565b6020808252825180518383015201516040820152600060208301516101a080606085015261521c6101c0850183614df3565b915060408501516080850152606085015160a0850152608085015160c085015260a085015160e085015260c0850151610100818187015260e0870151915061012082818801528188015192506101409150828288015280880151925050610160828188015281880151925061529a61018088018463ffffffff169052565b87015163ffffffff8116848801529150614f2d9050565b6000602082840312156152c357600080fd5b5051919050565b634e487b7160e01b600052604160045260246000fd5b6000602082840312156152f257600080fd5b604051602081018181106001600160401b038211171561532257634e487b7160e01b600052604160045260246000fd5b6040529151825250919050565b6000806000806080858703121561534557600080fd5b845193506020850151925061535d86604087016152e0565b915061536c86606087016152e0565b905092959194509250565b60006020828403121561538957600080fd5b81516141cb81614c87565b634e487b7160e01b600052603260045260246000fd5b634e487b7160e01b600052601160045260246000fd5b6000600182016153d2576153d26153aa565b5060010190565b600080604083850312156153ec57600080fd5b825191506153fd84602085016152e0565b90509250929050565b6001600160a01b0383168152604081016002831061542657615426614fdb565b8260208301529392505050565b6000806040838503121561544657600080fd5b825161545181614c87565b602084015190925061546281614c87565b809150509250929050565b634e487b7160e01b600052601260045260246000fd5b600063ffffffff8084168061549a5761549a61546d565b92169190910492915050565b6001600160a01b0392909216825263ffffffff16602082015260400190565b600080604083850312156154d857600080fd5b505080516020909101519092909150565b80820260008212600160ff1b84141615615505576155056153aa565b8181058314821517610555576105556153aa565b8082018281126000831280158216821582161715615539576155396153aa565b505092915050565b6000600160ff1b8201615556576155566153aa565b5060000390565b8082028115828204841417610555576105556153aa565b6000826155835761558361546d565b500490565b80820180821115610555576105556153aa565b81810381811115610555576105556153aa565b81810360008312801583831316838312821617156155ce576155ce6153aa565b5092915050565b6000826155e4576155e461546d565b600160ff1b8214600019841416156155fe576155fe6153aa565b500590565b600063ffffffff80831681810361561c5761561c6153aa565b6001019392505050565b6000806040838503121561563957600080fd5b825161564481614cd1565b91506153fd84602085016152e0565b6001600160a01b0392831681529116602082015260400190565b600181815b808511156156a857816000190482111561568e5761568e6153aa565b8085161561569b57918102915b93841c9390800290615672565b509250929050565b6000826156bf57506001610555565b816156cc57506000610555565b81600181146156e257600281146156ec57615708565b6001915050610555565b60ff8411156156fd576156fd6153aa565b50506001821b610555565b5060208310610133831016604e8410600b841016171561572b575081810a610555565b615735838361566d565b8060001904821115615749576157496153aa565b029392505050565b60006141cb83836156b0565b60008060006060848603121561577257600080fd5b835161577d81614c87565b602085015190935061578e81614c87565b604085015190925061579f81614c87565b809150509250925092565b6000806000606084860312156157bf57600080fd5b83516157ca81614cd1565b602085015190935091506157e185604086016152e0565b90509250925092565b6000602082840312156157fc57600080fd5b81516141cb81614cd1565b60008060006060848603121561581c57600080fd5b835161582781614cd1565b602085015190935060ff8116811461583e57600080fd5b604085015190925061579f816150a056fea2646970667358221220ab38a4a8ab3ec631a2ddf98de410a69956ffaa6589e800587bbf28b22e731b7864736f6c63430008130033",
  "linkReferences": {},
  "deployedLinkReferences": {}
}